:1000000001308A007D2900000A108A100A11820737
:1000100028340C34013406342010A026C921D227FC
:10002000D324C42200002010202AC52148274F26AF
:10003000CF2359002010C2244527D622CE24C4271E
:100040005300263084008313000803193428063037
:10005000F800F701F70B2A28F80B29287B30F70066
:10006000F70B3028800B272808002D183928861117
:100070003A288615831686118312AD184128061278
:10008000422806168316061283122D194928861255
:100090004A288616831686128312AD195128061334
:1000A0005228061783160613000006118312061540
:1000B0000330F700F70B5A28831606118312061136
:1000C0000800AE0183160611831206150000831680
:1000D000861583122E1086192E1483160616831287
:1000E000AE10061AAE148316861683122E11861AC7
:1000F0002E15831606178312AE11061BAE15831636
:100100000611831206112E08F80008008316061047
:100110008312061083168610831286140000612055
:100120007808AD0061207808AC002D0EF700F030A3
:10013000F70577082C04F8007808AC00AC1B8A2877
:10014000AA080319A8288316061083120614AC28DF
:100150008316061083120610000083168610831281
:100160008610000083160611831206112B0EAC00B8
:100170000F30AC052C08AD0035202B080F39AC0032
:10018000AD00352008008316061083120610831672
:1001900086108312861083160611831206110F3003
:1001A000A6002120A2012208023C031CDF28033004
:1001B000AD0035200530A6002120A20AD328023048
:1001C000AD003520A2012208033C031CF0282208C0
:1001D0000420A300AA012308AB008620A20AE3287A
:1001E0000800270BF428F7284030A800F828A801B9
:1001F00001302602A80728088038A900AA0129088A
:10020000AB008620080025080C3A03190E29063A8F
:1002100003191629023A03191C292129AA010130C0
:10022000AB0086200230A600212026290130A6003E
:100230000230A700F1202629AA011030AB00862049
:1002400026290130AA002508AB00862008000B08EB
:10025000A2008B13831603178C170C1400000000E8
:1002600083120313A21B8B1703170C087F39031982
:100270007B290313A20003170D080313A300031720
:100280000F080313A4002208A50003212308031765
:100290008D000313240803178F0003130B08A50018
:1002A0008B13831603178C170C14000000008312A5
:1002B0000313A51B8B1703170C0D0E0D7F390319A4
:1002C0007B290313A20003170D080313A3000317D0
:1002D0000F080313A4002208A50003212308031715
:1002E0008D000313240803178F008D0A03198F0A4A
:1002F0000313272903170313080003081F3983007A
:10030000A101A001831603170908C039890003134E
:100310001F129F1200300317880083128701880183
:10032000890183130313C3203230A60021200C302F
:1003300003178D0000308F00031327210830A2001F
:10034000FA30A6002120A20BA0290130A60002301D
:10035000A700F120133003178D0000308F00031326
:1003600027210830A200FA30A6002120A20BB329D1
:100370000130A600A700F120C3200430A200FA300B
:10038000A6002120A20BBF291A3003178D000030D0
:100390008F00031327210830A200FA30A600212085
:1003A000A20BCD29C3200830A200FA30A6002120DC
:0803B000A20BD5299729630077
:04400E00E22FFF3F5F
:00000001FF
;PIC16F887
;CRC=FDB6  CREATED="29-ago.-23 17:31"
